:1000000000308A0018280000223084008313000882
:10001000031917280230F800F701F70B0D28F80B29
:100020000C289730F700F70B1328800B0A280800DC
:10003000840183131F308305713083168F000F08EE
:1000400003170908C039890003131F129F120030DB
:10005000031788008312870188018901FF30831606
:1000600003138500003087001E30831287000518B7
:10007000602807120230A100FA30A2000420A10B70
:100080003C2807160230A100FA30A2000420A10B80
:10009000442807120230A100FA30A2000420A10B6C
:1000A0004C28851A602807143730F700F70B5628BC
:1000B00007103730F700F70B5B2804308700512812
:1000C0008518892807120230A100FA30A200042006
:1000D000A10B652807160230A100FA30A200042007
:1000E000A10B6D2807120230A100FA30A2000420F3
:1000F000A10B7528851A892807143730F700F70BEC
:100100007F2807103730F700F70B8428023087006C
:100110007A280519AB2807120230A100FA30A20094
:100120000420A10B8E2807160230A100FA30A2008D
:100130000420A10B962807120519AB2807143730A5
:10014000F700F70BA12807103730F700F70BA628A8
:10015000043087009C288519D42807120230A1009A
:10016000FA30A2000420A10BB02807160230A1002B
:10017000FA30A2000420A10BB82807120230A10017
:10018000FA30A2000420A10BC028851AD428071435
:100190005330F700F70BCA2807105330F700F70B5E
:1001A000CF2802308700C528051AFD280712023023
:1001B000A100FA30A2000420A10BD92807160230B2
:1001C000A100FA30A2000420A10BE128071202309E
:1001D000A100FA30A2000420A10BE928851AFD280D
:1001E00007142130F700F70BF32807102130F70030
:1001F000F70BF82802308700EE28831634286300B6
:04400E00E428FF3F64
:00000001FF
;PIC16F887
;CRC=92AD  CREATED="02-jun.-22 02:03"
